{
  "contractName": "Recorder",
  "abi": [
    {
      "constant": false,
      "inputs": [
        {
          "name": "userId",
          "type": "uint256"
        },
        {
          "name": "machineId",
          "type": "uint256"
        },
        {
          "name": "wattHour",
          "type": "uint256"
        }
      ],
      "name": "createRecord",
      "outputs": [
        {
          "name": "",
          "type": "uint256"
        }
      ],
      "payable": false,
      "stateMutability": "nonpayable",
      "type": "function"
    },
    {
      "constant": true,
      "inputs": [
        {
          "name": "",
          "type": "uint256"
        }
      ],
      "name": "records",
      "outputs": [
        {
          "name": "userId",
          "type": "uint256"
        },
        {
          "name": "machineId",
          "type": "uint256"
        },
        {
          "name": "wattHour",
          "type": "uint256"
        }
      ],
      "payable": false,
      "stateMutability": "view",
      "type": "function"
    },
    {
      "constant": false,
      "inputs": [],
      "name": "getRecords",
      "outputs": [
        {
          "name": "",
          "type": "uint256[]"
        },
        {
          "name": "",
          "type": "uint256[]"
        },
        {
          "name": "",
          "type": "uint256[]"
        }
      ],
      "payable": false,
      "stateMutability": "nonpayable",
      "type": "function"
    }
  ],
  "bytecode": "0x6060604052341561000f57600080fd5b6104ca8061001e6000396000f300606060405260043610610057576000357c0100000000000000000000000000000000000000000000000000000000900463ffffffff16806312ed53101461005c57806334461067146100a55780638eff3c29146100ea575b600080fd5b341561006757600080fd5b61008f60048080359060200190919080359060200190919080359060200190919050506101e4565b6040518082815260200191505060405180910390f35b34156100b057600080fd5b6100c6600480803590602001909190505061025d565b60405180848152602001838152602001828152602001935050505060405180910390f35b34156100f557600080fd5b6100fd610296565b60405180806020018060200180602001848103845287818151815260200191508051906020019060200280838360005b8381101561014857808201518184015260208101905061012d565b50505050905001848103835286818151815260200191508051906020019060200280838360005b8381101561018a57808201518184015260208101905061016f565b50505050905001848103825285818151815260200191508051906020019060200280838360005b838110156101cc5780820151818401526020810190506101b1565b50505050905001965050505050505060405180910390f35b600080848160000181905550838160010181905550828160020181905550600080548060010182816102169190610421565b916000526020600020906003020160008390919091506000820154816000015560018201548160010155600282015481600201555050506000805490509150509392505050565b60008181548110151561026c57fe5b90600052602060002090600302016000915090508060000154908060010154908060020154905083565b61029e610453565b6102a6610453565b6102ae610453565b6102b6610453565b6102be610453565b6102c6610453565b600080805490506040518059106102da5750595b908082528060200260200182016040525093506000805490506040518059106103005750595b908082528060200260200182016040525092506000805490506040518059106103265750595b90808252806020026020018201604052509150600090505b60008054905081101561040f5760008181548110151561035a57fe5b906000526020600020906003020160000154848281518110151561037a57fe5b906020019060200201818152505060008181548110151561039757fe5b90600052602060002090600302016001015483828151811015156103b757fe5b90602001906020020181815250506000818154811015156103d457fe5b90600052602060002090600302016002015482828151811015156103f457fe5b9060200190602002018181525050808060010191505061033e565b83838396509650965050505050909192565b81548183558181151161044e5760030281600302836000526020600020918201910161044d9190610467565b5b505050565b602060405190810160405280600081525090565b61049b91905b8082111561049757600080820160009055600182016000905560028201600090555060030161046d565b5090565b905600a165627a7a72305820ec77faf7d6eae300921021fefe679900ba8b09df75d8a2385b97cfdd8d0644350029",
  "source": "pragma solidity ^0.4.18;\n/**\n * @title Recorder — record a message into the blockchain\n * @author Life on Mars — https://lifeonmars.pt\n */\ncontract Recorder{\n\n  //only the machine should put records\n  struct EnergyRecord {\n    uint userId;\n    uint machineId;\n    uint wattHour;\n  }\n\n\n  EnergyRecord[] public records;\n\n\n  function createRecord(uint userId,uint machineId, uint wattHour) public returns (uint) {\n      EnergyRecord storage newRecord;\n      newRecord.userId = userId;\n      newRecord.machineId = machineId;\n      newRecord.wattHour = wattHour;\n      records.push(newRecord);\n      return records.length;\n  }\n\n  function getRecords() public returns (uint[],uint[],uint[]){\n\n    uint[] memory userId = new uint[](records.length);\n    uint[] memory machineId = new uint[](records.length);\n    uint[] memory wattHour = new uint[](records.length);\n\n    for (uint i = 0; i < records.length; i++){\n      userId[i] = records[i].userId;\n      machineId[i] = records[i].machineId;\n      wattHour[i] = records[i].wattHour;\n    }\n    return(userId,machineId,wattHour);\n  }\n}",
  "sourcePath": "/Users/jorishoogeboom/Pau/hackathon/pauwer/Solidity/contracts/Recorder.sol",
  "compiler": {
    "name": "solc",
    "version": "0.4.18+commit.9cf6e910.Emscripten.clang"
  },
  "schemaVersion": "1.0.1",
  "updatedAt": "2018-04-07T14:33:13.579Z"
}