{
  "contractName": "Recorder",
  "abi": [
    {
      "constant": false,
      "inputs": [
        {
          "name": "userId",
          "type": "uint256"
        },
        {
          "name": "machineId",
          "type": "uint256"
        },
        {
          "name": "wattHours",
          "type": "uint256"
        }
      ],
      "name": "createRecord",
      "outputs": [],
      "payable": false,
      "stateMutability": "nonpayable",
      "type": "function"
    },
    {
      "constant": true,
      "inputs": [
        {
          "name": "userId",
          "type": "uint256"
        },
        {
          "name": "machineId",
          "type": "uint256"
        }
      ],
      "name": "getRecords",
      "outputs": [
        {
          "name": "",
          "type": "uint256[]"
        },
        {
          "name": "",
          "type": "uint256[]"
        }
      ],
      "payable": false,
      "stateMutability": "view",
      "type": "function"
    }
  ],
  "bytecode": "0x6060604052341561000f57600080fd5b6103a58061001e6000396000f30060606040526004361061004c576000357c0100000000000000000000000000000000000000000000000000000000900463ffffffff16806312ed531014610051578063a0569b5714610086575b600080fd5b341561005c57600080fd5b610084600480803590602001909190803590602001909190803590602001909190505061014f565b005b341561009157600080fd5b6100b060048080359060200190919080359060200190919050506101ca565b604051808060200180602001838103835285818151815260200191508051906020019060200280838360005b838110156100f75780820151818401526020810190506100dc565b50505050905001838103825284818151815260200191508051906020019060200280838360005b8381101561013957808201518184015260208101905061011e565b5050505090500194505050505060405180910390f35b600080848152602001908152602001600020600083815260200190815260200160002080548060010182816101849190610304565b9160005260206000209060020201600060408051908101604052808581526020014281525090919091506000820151816000015560208201518160010155505050505050565b6101d2610336565b6101da610336565b60006101e4610336565b6101ec610336565b60008060008981526020019081526020016000206000888152602001908152602001600020935083805490506040518059106102255750595b90808252806020026020018201604052509250838054905060405180591061024a5750595b90808252806020026020018201604052509150600090505b83805490508110156102f357838181548110151561027c57fe5b906000526020600020906002020160000154838281518110151561029c57fe5b906020019060200201818152505083818154811015156102b857fe5b90600052602060002090600202016001015482828151811015156102d857fe5b90602001906020020181815250508080600101915050610262565b828295509550505050509250929050565b81548183558181151161033157600202816002028360005260206000209182019101610330919061034a565b5b505050565b602060405190810160405280600081525090565b61037691905b8082111561037257600080820160009055600182016000905550600201610350565b5090565b905600a165627a7a72305820c657899ec708c029642b19e0b46e6f44e21ad39f1bb7bf1fb30d628cf3fdd0d50029",
  "source": "pragma solidity ^0.4.18;\n/**\n * @title Recorder — record a message into the blockchain\n * @author Life on Mars — https://lifeonmars.pt\n */\ncontract Recorder{\n  struct wew {\n    uint wattHours;\n    uint timestamp;\n  }\n\n  mapping(uint => mapping(uint => wew[])) records;\n\n  function createRecord(uint userId, uint machineId, uint wattHours) public {\n    records[userId][machineId].push(wew({wattHours: wattHours, timestamp: now}));\n  }\n\n  function getRecords(uint userId, uint machineId) public view returns(uint[], uint[]) {\n    wew[] storage s = records[userId][machineId];\n    uint[] memory wH = new uint[](s.length); \n    uint[] memory timestamps = new uint[](s.length); \n    for(uint i=0; i< s.length; i++){\n      wH[i] = s[i].wattHours;\n      timestamps[i] = s[i].timestamp;\n    }\nreturn (wH, timestamps);\n  }\n}",
  "sourcePath": "/Users/jorishoogeboom/Pau/hackathon/pauwer/Solidity/contracts/Recorder.sol",
  "compiler": {
    "name": "solc",
    "version": "0.4.18+commit.9cf6e910.Emscripten.clang"
  },
  "schemaVersion": "1.0.1",
  "updatedAt": "2018-04-07T17:10:54.777Z"
}